{
  "contractName": "UniswapInteraction",
  "abi": [
    {
      "inputs": [
        {
          "internalType": "address",
          "name": "_uniswap",
          "type": "address"
        }
      ],
      "stateMutability": "nonpayable",
      "type": "constructor"
    },
    {
      "inputs": [
        {
          "internalType": "address",
          "name": "token",
          "type": "address"
        },
        {
          "internalType": "uint256",
          "name": "amountIn",
          "type": "uint256"
        },
        {
          "internalType": "uint256",
          "name": "amountOutMin",
          "type": "uint256"
        },
        {
          "internalType": "uint256",
          "name": "deadline",
          "type": "uint256"
        }
      ],
      "name": "swapTOkensForEth",
      "outputs": [],
      "stateMutability": "nonpayable",
      "type": "function"
    }
  ],
  "bytecode": "0x608060405234801561001057600080fd5b50604051610a63380380610a638339818101604052810190610032919061008d565b806000806101000a81548173ffffffffffffffffffffffffffffffffffffffff021916908373ffffffffffffffffffffffffffffffffffffffff160217905550506100ff565b600081519050610087816100e8565b92915050565b60006020828403121561009f57600080fd5b60006100ad84828501610078565b91505092915050565b60006100c1826100c8565b9050919050565b600073ffffffffffffffffffffffffffffffffffffffff82169050919050565b6100f1816100b6565b81146100fc57600080fd5b50565b6109558061010e6000396000f3fe608060405234801561001057600080fd5b506004361061002b5760003560e01c80638a07231114610030575b600080fd5b61004a6004803603810190610045919061056d565b61004c565b005b8373ffffffffffffffffffffffffffffffffffffffff166323b872dd3330866040518463ffffffff1660e01b8152600401610089939291906106dd565b602060405180830381600087803b1580156100a357600080fd5b505af11580156100b7573d6000803e3d6000fd5b505050506040513d601f19601f820116820180604052508101906100db9190610611565b506000600267ffffffffffffffff81111561011f577f4e487b7100000000000000000000000000000000000000000000000000000000600052604160045260246000fd5b60405190808252806020026020018201604052801561014d5781602001602082028036833780820191505090505b509050848160008151811061018b577f4e487b7100000000000000000000000000000000000000000000000000000000600052603260045260246000fd5b602002602001019073ffffffffffffffffffffffffffffffffffffffff16908173ffffffffffffffffffffffffffffffffffffffff168152505060008054906101000a900473ffffffffffffffffffffffffffffffffffffffff1673ffffffffffffffffffffffffffffffffffffffff1663ad5c46486040518163ffffffff1660e01b815260040160206040518083038186803b15801561022b57600080fd5b505afa15801561023f573d6000803e3d6000fd5b505050506040513d601f19601f820116820180604052508101906102639190610544565b8160018151811061029d577f4e487b7100000000000000000000000000000000000000000000000000000000600052603260045260246000fd5b602002602001019073ffffffffffffffffffffffffffffffffffffffff16908173ffffffffffffffffffffffffffffffffffffffff16815250508473ffffffffffffffffffffffffffffffffffffffff1663095ea7b360008054906101000a900473ffffffffffffffffffffffffffffffffffffffff16866040518363ffffffff1660e01b8152600401610332929190610714565b602060405180830381600087803b15801561034c57600080fd5b505af1158015610360573d6000803e3d6000fd5b505050506040513d601f19601f820116820180604052508101906103849190610611565b5060008054906101000a900473ffffffffffffffffffffffffffffffffffffffff1673ffffffffffffffffffffffffffffffffffffffff166318cbafe585858433876040518663ffffffff1660e01b81526004016103e695949392919061073d565b600060405180830381600087803b15801561040057600080fd5b505af1158015610414573d6000803e3d6000fd5b505050506040513d6000823e3d601f19601f8201168201806040525081019061043d91906105d0565b505050505050565b6000610458610453846107bc565b610797565b9050808382526020820190508285602086028201111561047757600080fd5b60005b858110156104a7578161048d888261052f565b84526020840193506020830192505060018101905061047a565b5050509392505050565b6000813590506104c0816108da565b92915050565b6000815190506104d5816108da565b92915050565b600082601f8301126104ec57600080fd5b81516104fc848260208601610445565b91505092915050565b600081519050610514816108f1565b92915050565b60008135905061052981610908565b92915050565b60008151905061053e81610908565b92915050565b60006020828403121561055657600080fd5b6000610564848285016104c6565b91505092915050565b6000806000806080858703121561058357600080fd5b6000610591878288016104b1565b94505060206105a28782880161051a565b93505060406105b38782880161051a565b92505060606105c48782880161051a565b91505092959194509250565b6000602082840312156105e257600080fd5b600082015167ffffffffffffffff8111156105fc57600080fd5b610608848285016104db565b91505092915050565b60006020828403121561062357600080fd5b600061063184828501610505565b91505092915050565b60006106468383610652565b60208301905092915050565b61065b81610821565b82525050565b61066a81610821565b82525050565b600061067b826107f8565b6106858185610810565b9350610690836107e8565b8060005b838110156106c15781516106a8888261063a565b97506106b383610803565b925050600181019050610694565b5085935050505092915050565b6106d78161085f565b82525050565b60006060820190506106f26000830186610661565b6106ff6020830185610661565b61070c60408301846106ce565b949350505050565b60006040820190506107296000830185610661565b61073660208301846106ce565b9392505050565b600060a08201905061075260008301886106ce565b61075f60208301876106ce565b81810360408301526107718186610670565b90506107806060830185610661565b61078d60808301846106ce565b9695505050505050565b60006107a16107b2565b90506107ad8282610869565b919050565b6000604051905090565b600067ffffffffffffffff8211156107d7576107d661089a565b5b602082029050602081019050919050565b6000819050602082019050919050565b600081519050919050565b6000602082019050919050565b600082825260208201905092915050565b600061082c8261083f565b9050919050565b60008115159050919050565b600073ffffffffffffffffffffffffffffffffffffffff82169050919050565b6000819050919050565b610872826108c9565b810181811067ffffffffffffffff821117156108915761089061089a565b5b80604052505050565b7f4e487b7100000000000000000000000000000000000000000000000000000000600052604160045260246000fd5b6000601f19601f8301169050919050565b6108e381610821565b81146108ee57600080fd5b50565b6108fa81610833565b811461090557600080fd5b50565b6109118161085f565b811461091c57600080fd5b5056fea264697066735822122002cf9515a2257facd57248b8631d7914099b443233a1983852a93abfc4aa6a1864736f6c63430008040033",
  "immutableReferences": {},
  "source": "// \"SPDX-License-Identifier: UNLICENSED\"\npragma solidity >=0.7.0;\n\ninterface IUniswap {\n    function swapExactTokensForETH(\n        uint256 amountIn,\n        uint256 amountOutMin,\n        address[] calldata path,\n        address to,\n        uint256 deadline\n    ) external returns (uint256[] memory amounts);\n\n    function WETH() external pure returns (address);\n}\n\ninterface IERC20 {\n    function transferFrom(\n        address sender,\n        address recipient,\n        uint256 amount\n    ) external returns (bool);\n\n    function approve(address spender, uint256 amount) external returns (bool);\n}\n\ncontract UniswapInteraction {\n    IUniswap uniswap; //uniswap pointer\n\n    constructor(address _uniswap) {\n        uniswap = IUniswap(_uniswap);\n    }\n\n    function swapTOkensForEth(\n        address token,\n        uint256 amountIn,\n        uint256 amountOutMin,\n        uint256 deadline\n    ) external {\n        IERC20(token).transferFrom(msg.sender, address(this), amountIn);\n        address[] memory path = new address[](2);\n        path[0] = token;\n        path[1] = uniswap.WETH(); //returns the address of WETH\n        IERC20(token).approve(address(uniswap), amountIn);\n        uniswap.swapExactTokensForETH(\n            amountIn,\n            amountOutMin,\n            path,\n            msg.sender,\n            deadline\n        );\n    }\n}\n",
  "sourcePath": "/var/www/html/ETB_updated/ETb_flair/UniswapIntegration/contracts/UniswapInteraction.sol",
  "compiler": {
    "name": "solc",
    "version": "0.8.4+commit.c7e474f2.Emscripten.clang"
  },
  "schemaVersion": "3.3.4",
  "updatedAt": "2021-06-19T13:05:11.878Z",
  "networkType": "ethereum",
  "devdoc": {
    "kind": "dev",
    "methods": {},
    "version": 1
  },
  "userdoc": {
    "kind": "user",
    "methods": {},
    "version": 1
  }
}